{
  "contracts/Sport.sol": {
    "Sport": {
      "abi": [
        {
          "inputs": [
            {
              "internalType": "string",
              "name": "_greeting",
              "type": "string"
            }
          ],
          "stateMutability": "nonpayable",
          "type": "constructor"
        },
        {
          "inputs": [],
          "name": "greet",
          "outputs": [
            {
              "internalType": "string",
              "name": "",
              "type": "string"
            }
          ],
          "stateMutability": "view",
          "type": "function"
        },
        {
          "inputs": [
            {
              "internalType": "address",
              "name": "to",
              "type": "address"
            }
          ],
          "name": "sendTip",
          "outputs": [],
          "stateMutability": "payable",
          "type": "function"
        },
        {
          "inputs": [
            {
              "internalType": "string",
              "name": "_greeting",
              "type": "string"
            }
          ],
          "name": "setGreeting",
          "outputs": [],
          "stateMutability": "nonpayable",
          "type": "function"
        }
      ],
      "evm": {
        "bytecode": {
          "object": "0c0000040004000000010000000000000000ffffffffffffffff0000000000000c000004000400000000ffffffffffffffffffffffffffffffff0000000000000e000000000200000001000000000000000000000000000000000000000000001a020004000800000002000000000000000000000000000000000000000000000c000010001000000001000000000000000001000000000000000000000000000c000010001000000000000000000000000000000000000000000000000000000c000020002000000001010000000000000000000000000000000000000000000c000020002000000000000000000000000000000000000000000000000000000c000004000400000001010000000000000000000000000000000000000000000c0000040004000000000000000000000000000000000000000000000000000004080010000000000000000000000000000000000000000000000000000000000a0000000000000000040e000c000000000000000000000000000000000000000c000004000400000001000000000000000000000000000000000000000000000c000004000400000000000000000000000000000000000000000000000000000c0000100010000000017c7ee91ae51bb0ed9b9e413333bf74f70000000000000c000010001000000000b75ee1170f6b7c3ce4583c65d82198c400000000000005100000004000000001000000000000000000000000000000000000000000000c000010001000000001010000000000000000000000000000000000000000000c0000100010000000000000000000000000000000000000000000000000000004400000000000000000000000000000000000000000000000000000000000000a000000000000000004170015000000000000000000000000000000000000000c000010001000000001000000000000000000000000000000000000000000000c0000100010000000000000000000000000000000000000000000000000000004400020000000000000000000000000000000000000000000000000000000000a00000000000000000419001f000000000000000000000000000000000000000c000020002000000001000000000000000000000000000000000000000000000c00002000200000000000000000000000000000000083bbcae30000000000000c000080008000000001000000000000000001000000000000000000000000000c0000800080000000000000000000000000000000000000000000000000000004080080000000000000000000000000000000000000000000000000000000000a00000000000000000433001f0000000000000000000000000000000000000004400000000000000000000000000000000000000000000000000000000000000a000000000000000004210027000000000000000000000000000000000000000c000020002000000001000000000000000000000000000000000000000000000c000020002000000000000000000000000000000000c9a6bc8e0000000000000c000008000800000001000000000000000001000000000000000000000000000c0000080008000000000000000000000000000000000000000000000000000004020008000000000000000000000000000000000000000000000000000000000a000000000000000002330027000000000000000000000000000000000000001a100004000200000002000000000000000000000000000000000000000000001a000002000200000002010000000000000000000000000000000000000000000c000004000400000001010000000000000000000000000000000000000000000c0000040004000000000000000000000000000000000000000000000000000004020004000000000000000000000000000000000000000000000000000000000a0000000000000000042d00300000000000000000000000000000000000000007000000000000000003380000000000000000000000000000000000000000000a00000000000000000232002f000000000000000000000000000000000000000700000000000000000000000000000000000000000000000000000000000000070000000000000000033d0100000000000000000000000000000000000000000a00000000000000000232002f0000000000000000000000000000000000000007000000000000000004000000000000000000000000000000000000000000000c000002000200000001040000000000000000000000000000000000000000000c000002000200000000000000000000000000000000000000000000000000000e000002000000000000000000000000000000000000000000000000000000000e0000200000000000000100000000000000000000000000000000000000000007000000000000000004000000000000000000000000000000000000000000000e0000000000000000e0040000000000000000000000000000000000000000000c000002000200000001800000000000000000000000000000000000000000000c000002000200000000000000000000000000000000000000000000000000000e000002000000000020020000000000000000000000000000000000000000000e000000000200000001000000000000000000000000000000000000000000001a000002008000000002ffffffff000000000000000000000000000000000000020000800004000000001f0000000000000000000000000000000000000000001a000004000400000002e0ffffff01000000000000000000000000000000000002000004000400000000800000000000000000000000000000000000000000000e000004000000000020020000000000000000000000000000000000000000000c000008000800000001000000000000000000000000000000000000000000000c000008000800000000000000000000000000000000000000000000000000001a0000020004000000021f000000000000000000000000000000000000000000180000800010000000020500000000000000000000000000000000000000000004100000000000000000000000000000000000000000000000000000000000000a0000000000000000045100480000000000000000000000000000000000000018000008002000000000050000000000000000000000000000000000000000000c000040004000000001200000000000000000000000000000000000000000000c0000400040000000000000000000000000000000000000000000000000000008200040002000000000000000000000000000000000000000000000000000000e200000004000000001010000000000000000000000000000000000000000000e20004000000000002004000000000000000000000000000000000000000000020000080008000000000100000000000000000000000000000000000000000004080010000000000000000000000000000000000000000000000000000000000a0000000000000000024800510000000000000000000000000000000000000004040000000000000000000000000000000000000000000000000000000000000a000000000000000004650053000000000000000000000000000000000000001a000002000200000002e0ffffff0000000000000000000000000000000000000c000008000800000001200000000000000000000000000000000000000000000c00000800080000000000000000000000000000000000000000000000000000080200080002000000000000000000000000000000000000000000000000000018000004000400000000030000000000000000000000000000000000000000000c000008000800000001ffffffffffffffffffffffffffffffff0000000000000c000008000800000000ffffffffffffffffffffffffffffffff00000000000018040008001000000002000000000000000000000000000000000000000000000e020000002000000021040000000000000000000000000000000000000000001a200010001000000002000000000000000000000000000000000000000000000c000020002000000001000100000000000000000000000000000000000000000c00002000200000000000000000000000000000000000000000000000000000042000040004000000000000000000000000000000000000000000000000000018040008000400000000000000000000000000000000000000000000000000000e020000000800000001010000000000000000000000000000000000000000001a080004000400000002000000000000000000000000000000000000000000001a040010000400000004000000000000000000000000000000000000000000000e020004000000000020040000000000000000000000000000000000000000000c000002000200000001200000000000000000000000000000000000000000000c0000020002000000000000000000000000000000000000000000000000000004800002000000000000000000000000000000000000000000000000000000000a00000000000000000c6900ce000000000000000000000000000000000000000e000000002000000021040000000000000000000000000000000000000000000c000002000200000001ffffffffffffffff00000000000000000000000000000c0000020002000000000000000000000000000000000000000000000000000004200002000000000000000000000000000000000000000000000000000000000a000000000000000008ce006e00000000000000000000000000000000000000020000200008000000001f0000000000000000000000000000000000000000000c000004000400000001000000000000000000000000000000000000000000000c000004000400000000000000000000000000000000000000800000000000000c000002000200000001000000000000000000000000000000000000000000000c0000020002000000000000000000000000000000000000008000000000000004080080000000000000000000000000000000000000000000000000000000000a00000000000000000c770075000000000000000000000000000000000000000c000002000200000001000000000000000000000000000000000000000000000c000002000200000000000000000000000000000000000000000000000000001a080004001000000002000000000000000000000000000000000000000000000c000008000800000001000000000000000000000000000000000000000000000c0000080008000000000000000000000000000000000000008000000000000004100000000000000000000000000000000000000000000000000000000000000a0000000000000000027e007c000000000000000000000000000000000000000c000008000800000001000000000000000000000000000000000000000000000c0000080008000000000000000000000000000000000000000000000000000004100004000000000000000000000000000000000000000000000000000000000a00000000000000000481008000000000000000000000000000000000000000020200000008000000000000000000000000000000000000000000000000000004080000000000000000000000000000000000000000000000000000000000000a00000000000000000ace0083000000000000000000000000000000000000000e000080000000000060050000000000000000000000000000000000000000000e0000200000000000600100000000000000000000000000000000000000000002000020000200000000800000000000000000000000000000000000000000000e000002000000000060040000000000000000000000000000000000000000000202000000010000000000000000000000000000000000000000000000000000070000000000000000033a06000000000000000000000000000000000000000002010000002000000000000000000000000000000000000000000000000000000c000002000200000001ffffffffffffffff00000000000000000000000000000c0000020002000000000000000000000000000000000000000000000000000004200002000000000000000000000000000000000000000000000000000000000a000000000000000006ad008e000000000000000000000000000000000000000c000002000200000001000000000000000000000000000000000000000000000c000002000200000000000000000000000000000000717b484e0000000000000e000002000000000020000000000000000000000000000000000000000000000c000001000100000001410000000000000000000000000000000000000000000c000001000100000000000000000000000000000000000000000000000000000c000002000200000001040000000000000000000000000000000000000000000c0000020002000000000000000000000000000000000000000000000000000007000000000000000003620600000000000000000000000000000000000000000c000002000200000001240000000000000000000000000000000000000000000c000002000200000000000000000000000000000000000000000000000000000e000002000000000000000000000000000000000000000000000000000000000c000004000400000001000000000000000000000000000000000000000000000c000004000400000000000000000000000000000000000000000000000000000c000002000200000001200000000000000000000000000000000000000000000c000002000200000000000000000000000000000000000000000000000000000a000000000000000001a100a100000000000000000000000000000000000000020800000004000000000000000000000000000000000000000000000000000004100000000000000000000000000000000000000000000000000000000000000a00000000000000000aa100dd00000000000000000000000000000000000000180000040008000000000500000000000000000000000000000000000000000008080002000800000000000000000000000000000000000000000000000000000e080000001000000021000000000000000000000000000000000000000000000e0800100000000000000100000000000000000000000000000000000000000002000004000800000000010000000000000000000000000000000000000000000c000010001000000001010000000000000000000000000000000000000000000c0000100010000000000000000000000000000000000000000000000000000004080004000000000000000000000000000000000000000000000000000000000a0000000000000000029e00aa000000000000000000000000000000000000000c000010001000000001000000000000000000000000000000000000000000000c000010001000000000000000000000000000000000000000000000000000000a0000000000000000019e009e00000000000000000000000000000000000000020000200002000000003f0000000000000000000000000000000000000000000c000004000400000001e0ffffffffffffffffffffffffffffff0000000000000c000004000400000000ffffffffffffffffffffffffffffffff0000000000001a020004000400000002000000000000000000000000000000000000000000000e0000000002000000210200000000000000000000000000000000000000000002020004004000000000000000000000000000000000000000000000000000000c000004000400000001010000000000000000000000000000000000000000000c0000040004000000000000000000000000000000000000000000000000000004400002000000000000000000000000000000000000000000000000000000000a000000000000000002b900b7000000000000000000000000000000000000000c000004000400000001000000000000000000000000000000000000000000000c000004000400000000000000000000000000000000000000000000000000000c000008000800000001ffffffffffffffff00000000000000000000000000000c000008000800000000000000000000000000000000000000000000000000000e0000000010000000610500000000000000000000000000000000000000000004400008000000000000000000000000000000000000000000000000000000000a000000000000000008e800be0000000000000000000000000000000000000004040000000000000000000000000000000000000000000000000000000000000a00000000000000000ae800c00000000000000000000000000000000000000002000010000400000000800000000000000000000000000000000000000000000e000004000000000060050000000000000000000000000000000000000000000e0000400000000000200200000000000000000000000000000000000000000002200000000100000000000000000000000000000000000000000000000000000e000002000000000060030000000000000000000000000000000000000000000e0000200000000000600200000000000000000000000000000000000000000007000000000000000003620600000000000000000000000000000000000000000e000000000400000061020000000000000000000000000000000000000000000e00000000020000006101000000000000000000000000000000000000000000020200040002000000000000000000000000000000000000000000000000000002000002000200000000a00000000000000000000000000000000000000000000e0000000008000000610500000000000000000000000000000000000000000004020008000000000000000000000000000000000000000000000000000000000a000000000000000008ce0018010000000000000000000000000000000000000c000002000200000001000000000000000000000000000000000000000000000c000002000200000000000000000000000000000000000000000000000000000e000002000000000000000000000000000000000000000000000000000000000c000002000200000001010000000000000000000000000000000000000000000c000002000200000000000000000000000000000000000000000000000000000e000000000400000021ffff000000000000000000000000000000000000000004040002000000000000000000000000000000000000000000000000000000000a000000000000000004d6003b010000000000000000000000000000000000000c0000020002000000017c7ee91ae51bb0ed9b9e413333bf74f70000000000000c000002000200000000b75ee1170f6b7c3ce4583c65d82198c40000000000000c000004000400000001010000000000000000000000000000000000000000000c0000040004000000000000000000000000000000000000000000000000000005020004000000000000000000000000000000000000000000000000000000000e0000000000000000e10400000000000000000000000000000000000000000007000000000000000000000000000000000000000000000000000000000000000c000002000200000001ffffffffffffffffffffffffffffffff0000000000000c000002000200000000ffffffffffffffffffffffff000000000000000000000e000000000400000001020000000000000000000000000000000000000000001a040002000200000002000000000000000000000000000000000000000000000c000004000400000001000000000000000000000000000000000000000000000c000004000400000000000000000000000000000000ffffffff0000000000000e000000000800000021010000000000000000000000000000000000000000001a080004000400000002000000000000000000000000000000000000000000001a040002000200000004000000000000000000000000000000000000000000000e000002000000000000020000000000000000000000000000000000000000000a000000000000000001110111010000000000000000000000000000000000000c000002000200000001000000000000000000000000000000000000000000000c000002000200000000000000000000000000000000717b484e0000000000000e000002000000000020000000000000000000000000000000000000000000000c000001000100000001410000000000000000000000000000000000000000000c000001000100000000000000000000000000000000000000000000000000000c000002000200000001040000000000000000000000000000000000000000000c0000020002000000000000000000000000000000000000000000000000000007000000000000000003620600000000000000000000000000000000000000000c000002000200000001240000000000000000000000000000000000000000000c000002000200000000000000000000000000000000000000000000000000000e000002000000000000000000000000000000000000000000000000000000000c000004000400000001000000000000000000000000000000000000000000000c000004000400000000000000000000000000000000000000000000000000000c000002000200000001200000000000000000000000000000000000000000000c000002000200000000000000000000000000000000000000000000000000000a000000000000000001fb00fb00000000000000000000000000000000000000020800000004000000000000000000000000000000000000000000000000000004100000000000000000000000000000000000000000000000000000000000000a00000000000000000afb000701000000000000000000000000000000000000180000040008000000000500000000000000000000000000000000000000000008080002000800000000000000000000000000000000000000000000000000000e080000001000000021000000000000000000000000000000000000000000000e0800100000000000000100000000000000000000000000000000000000000002000004000800000000010000000000000000000000000000000000000000000c000010001000000001010000000000000000000000000000000000000000000c0000100010000000000000000000000000000000000000000000000000000004080004000000000000000000000000000000000000000000000000000000000a000000000000000002f80004010000000000000000000000000000000000000c000010001000000001000000000000000000000000000000000000000000000c000010001000000000000000000000000000000000000000000000000000000a000000000000000001f800f8000000000000000000000000000000000000000c000002000200000001ffffffffffffffffffffffffffffffff0000000000000c000002000200000000ffffffffffffffffffffffff000000000000000000000e000000000400000001020000000000000000000000000000000000000000001a040002000200000002000000000000000000000000000000000000000000000c000004000400000001000000000000000000000000000000000000000000000c000004000400000000000000000000000000000000ffffffff0000000000000e000000000800000021010000000000000000000000000000000000000000001a080004000400000002000000000000000000000000000000000000000000001a040002000200000004000000000000000000000000000000000000000000000e000002000000000000020000000000000000000000000000000000000000000c000002000200000001010000000000000000000000000000000000000000000c000002000200000000000000000000000000000000000000000000000000000e000000000400000021ffff000000000000000000000000000000000000000004040002000000000000000000000000000000000000000000000000000000000a000000000000000004d60016010000000000000000000000000000000000000e0000000000000000e10400000000000000000000000000000000000000000007000000000000000004000000000000000000000000000000000000000000000c000008000800000001000000000000000000000000000000000000000000000c000008000800000000000000000000000000000000000000000000000000000e000000000200000061030000000000000000000000000000000000000000000e0000000002000000610400000000000000000000000000000000000000000004040000000000000000000000000000000000000000000000000000000000000a00000000000000000433011e0100000000000000000000000000000000000002000008000800000000200000000000000000000000000000000000000000000e000008000000000060050000000000000000000000000000000000000000000e000000000200000061040000000000000000000000000000000000000000000208000200010000000000000000000000000000000000000000000000000000070000000000000000033a0600000000000000000000000000000000000000000e000000000200000061030000000000000000000000000000000000000000000e00000000040000006105000000000000000000000000000000000000000000020400020002000000000000000000000000000000000000000000000000000007000000000000000003620600000000000000000000000000000000000000000e000000000800000061050000000000000000000000000000000000000000000e0000000002000000610200000000000000000000000000000000000000000004080002000000000000000000000000000000000000000000000000000000000a0000000000000000021e012b0100000000000000000000000000000000000004080002000000000000000000000000000000000000000000000000000000000a00000000000000000633012d010000000000000000000000000000000000000e00000000040000006103000000000000000000000000000000000000000000020200040002000000000000000000000000000000000000000000000000000002000002000200000000200000000000000000000000000000000000000000000c000001000100000001000000000000000000000000000000000000000000000c0000010001000000000000000000000000000000000000000000000000000007000000000000000003620600000000000000000000000000000000000000000e0000000001000000610300000000000000000000000000000000000000000007000000000000000003a70300000000000000000000000000000000000000000a000000000000000002360137010000000000000000000000000000000000000a000000000000000001110111010000000000000000000000000000000000000c000002000200000001000000000000000000000000000000000000000000000c000002000200000000000000000000000000000000000000000000000000000e000002000000000000000000000000000000000000000000000000000000000a000000000000000001d600d6000000000000000000000000000000000000000e0000000000000000e10400000000000000000000000000000000000000000007000000000000000004000000000000000000000000000000000000000000000e0000000000000000e0050000000000000000000000000000000000000000000c000002000200000001800000000000000000000000000000000000000000000c000002000200000000000000000000000000000000000000000000000000000e000002000000000020020000000000000000000000000000000000000000000e000000000400000001000000000000000000000000000000000000000000001a000004000200000002fcffffff00000000000000000000000000000000000004020000000000000000000000000000000000000000000000000000000000000a000000000000000004be0245010000000000000000000000000000000000001a000004001000000002ffffffff0000000000000000000000000000000000000c000004000400000001000000000000000000000000000000000000000000000c000004000400000000000000000000000000000000ffffffff0000000000000e000000000800000001010000000000000000000000000000000000000000001a080004000400000002000000000000000000000000000000000000000000000c000008000800000001000000000000000000000000000000000000000000000c000008000800000000000000000000000000000000626813a400000000000004040008000000000000000000000000000000000000000000000000000000000a0000000000000000044e019a010000000000000000000000000000000000000c000004000400000001240000000000000000000000000000000000000000000c0000040004000000000000000000000000000000000000000000000000000004020004000000000000000000000000000000000000000000000000000000000a000000000000000002be0252010000000000000000000000000000000000000c000001000100000001240000000000000000000000000000000000000000000c000001000100000000000000000000000000000000000000000000000000000e00001000000000006006000000000000000000000000000000000000000000070000000000000000034e0600000000000000000000000000000000000000000e0000000010000000610600000000000000000000000000000000000000000002010000002000000000000000000000000000000000000000000000000000000c000002000200000001ffffffffffffffff00000000000000000000000000000c0000020002000000000000000000000000000000000000000000000000000004200002000000000000000000000000000000000000000000000000000000000a000000000000000008be025c0100000000000000000000000000000000000002000020000800000000230000000000000000000000000000000000000000000c000004000400000001000000000000000000000000000000000000000000000c000004000400000000000000000000000000000000000000800000000000000c000002000200000001000000000000000000000000000000000000000000000c0000020002000000000000000000000000000000000000008000000000000004080010000000000000000000000000000000000000000000000000000000000a00000000000000000c650163010000000000000000000000000000000000000c000002000200000001000000000000000000000000000000000000000000000c000002000200000000000000000000000000000000000000000000000000001a080004001000000002000000000000000000000000000000000000000000000c000008000800000001000000000000000000000000000000000000000000000c0000080008000000000000000000000000000000000000008000000000000004100000000000000000000000000000000000000000000000000000000000000a0000000000000000026c016a010000000000000000000000000000000000000c000008000800000001000000000000000000000000000000000000000000000c0000080008000000000000000000000000000000000000000000000000000004100004000000000000000000000000000000000000000000000000000000000a0000000000000000046f016e01000000000000000000000000000000000000020200000008000000000000000000000000000000000000000000000000000004080000000000000000000000000000000000000000000000000000000000000a00000000000000000abe0271010000000000000000000000000000000000000e0000200000000000600600000000000000000000000000000000000000000002000020000200000000240000000000000000000000000000000000000000000e000002000000000060050000000000000000000000000000000000000000000202000000010000000000000000000000000000000000000000000000000000070000000000000000034e06000000000000000000000000000000000000000002010000001000000000000000000000000000000000000000000000000000000c000002000200000001ffffffffffffffff00000000000000000000000000000c0000020002000000000000000000000000000000000000000000000000000004100002000000000000000000000000000000000000000000000000000000000a00000000000000000610027b010000000000000000000000000000000000000c000002000200000001000000000000000000000000000000000000000000000c000002000200000000000000000000000000000000717b484e0000000000000e000002000000000020000000000000000000000000000000000000000000000c000001000100000001410000000000000000000000000000000000000000000c000001000100000000000000000000000000000000000000000000000000000c000002000200000001040000000000000000000000000000000000000000000c0000020002000000000000000000000000000000000000000000000000000007000000000000000003620600000000000000000000000000000000000000000c000002000200000001240000000000000000000000000000000000000000000c000002000200000000000000000000000000000000000000000000000000000e000002000000000000000000000000000000000000000000000000000000000c000004000400000001000000000000000000000000000000000000000000000c000004000400000000000000000000000000000000000000000000000000000c000002000200000001200000000000000000000000000000000000000000000c000002000200000000000000000000000000000000000000000000000000000a0000000000000000018e018e01000000000000000000000000000000000000020800000004000000000000000000000000000000000000000000000000000004100000000000000000000000000000000000000000000000000000000000000a00000000000000000a8e013a02000000000000000000000000000000000000180000040008000000000500000000000000000000000000000000000000000008080002000800000000000000000000000000000000000000000000000000000e080000001000000021000000000000000000000000000000000000000000000e0800100000000000000100000000000000000000000000000000000000000002000004000800000000010000000000000000000000000000000000000000000c000010001000000001010000000000000000000000000000000000000000000c0000100010000000000000000000000000000000000000000000000000000004080004000000000000000000000000000000000000000000000000000000000a0000000000000000028b0197010000000000000000000000000000000000000c000010001000000001000000000000000000000000000000000000000000000c000010001000000000000000000000000000000000000000000000000000000a0000000000000000018b018b010000000000000000000000000000000000000c000002000200000001000000000000000000000000000000000000000000000c000002000200000000000000000000000000000000e01be8a400000000000004040002000000000000000000000000000000000000000000000000000000000a0000000000000000049e01b5010000000000000000000000000000000000000210000000010000000000000000000000000000000000000000000000000000070000000000000000034b0400000000000000000000000000000000000000000a000000000000000002a101a2010000000000000000000000000000000000000a000000000000000001120312030000000000000000000000000000000000000c000002000200000001ffffffffffffffffffffffffffffffff0000000000000c000002000200000000ffffffff0000000000000000000000000000000000001a010002000200000002000000000000000000000000000000000000000000000c000004000400000001040000000000000000000000000000000000000000000c0000040004000000000000000000000000000000000000000000000000000004020004000000000000000000000000000000000000000000000000000000000a000000000000000004b101a90100000000000000000000000000000000000010000000000000000000000000000000000000000000000000000000000000000c000004000400000001000000000000000000000000000000000000000000000c000004000400000000000000000000000000000000000000000000000000000e000004000000000040000000000000000000000000000000000000000000001800000200010000000020000000000000000000000000000000000000000000070000000000000000038106000000000000000000000000000000000000000004010000000000000000000000000000000000000000000000000000000000000a0000000000000000044502b1010000000000000000000000000000000000000c000002000200000001000000000000000000000000000000000000000000000c000002000200000000000000000000000000000000000000000000000000000e000002000000000000000000000000000000000000000000000000000000000a000000000000000001c602c6020000000000000000000000000000000000000c000002000200000001000000000000000000000000000000000000000000000c0000020002000000000000000000000000000000001732aecf00000000000004040002000000000000000000000000000000000000000000000000000000000a000000000000000004b901be0200000000000000000000000000000000000007000000000000000003700400000000000000000000000000000000000000000a000000000000000002bb01bd010000000000000000000000000000000000000e000001000000000060020000000000000000000000000000000000000000000a000000000000000001120312030000000000000000000000000000000000000e000001000000000060020000000000000000000000000000000000000000000c000001000100000001200000000000000000000000000000000000000000000c000001000100000000000000000000000000000000000000000000000000000e000000000200000021020000000000000000000000000000000000000000000e0000020000000000600400000000000000000000000000000000000000000007000000000000000003620600000000000000000000000000000000000000000e00000000010000006102000000000000000000000000000000000000000000070000000000000000033a0600000000000000000000000000000000000000000e000001000000000060030000000000000000000000000000000000000000000e00000000020000006104000000000000000000000000000000000000000000020000020002000000002000000000000000000000000000000000000000000007000000000000000003620600000000000000000000000000000000000000000c000004000400000001000000000000000000000000000000000000000000000c000004000400000000000000000000000000000000000000000000000000000e0000000002000000610400000000000000000000000000000000000000000002000002000200000000400000000000000000000000000000000000000000000e000002000000000060010000000000000000000000000000000000000000000e0000000002000000610300000000000000000000000000000000000000000004020000000000000000000000000000000000000000000000000000000000000a000000000000000004e901d1010000000000000000000000000000000000000e0000040000000000600500000000000000000000000000000000000000000002000004000800000000200000000000000000000000000000000000000000000e000008000000000060060000000000000000000000000000000000000000000e000000000200000061020000000000000000000000000000000000000000000208000200010000000000000000000000000000000000000000000000000000070000000000000000033a0600000000000000000000000000000000000000000e000000000200000061010000000000000000000000000000000000000000000e00000000040000006105000000000000000000000000000000000000000000020200040002000000000000000000000000000000000000000000000000000007000000000000000003620600000000000000000000000000000000000000000e0000000008000000610600000000000000000000000000000000000000000002080000000400000000000000000000000000000000000000000000000000000e0000000002000000610300000000000000000000000000000000000000000004080002000000000000000000000000000000000000000000000000000000000a000000000000000002d101e0010000000000000000000000000000000000000e0000000002000000610300000000000000000000000000000000000000000004080002000000000000000000000000000000000000000000000000000000000a000000000000000006e901e3010000000000000000000000000000000000000e000000000200000061030000000000000000000000000000000000000000000e0000000004000000610100000000000000000000000000000000000000000002040002000200000000000000000000000000000000000000000000000000000c000001000100000001000000000000000000000000000000000000000000000c0000010001000000000000000000000000000000000000000000000000000007000000000000000003620600000000000000000000000000000000000000000e00000000020000006103000000000000000000000000000000000000000000020000020002000000005f0000000000000000000000000000000000000000000c000004000400000001e0ffffffffffffffffffffffffffffff0000000000000c000004000400000000ffffffffffffffffffffffffffffffff0000000000001a020004000200000002000000000000000000000000000000000000000000000e000002000000000000000000000000000000000000000000000000000000000e0000020000000000600200000000000000000000000000000000000000000018000002000200000002050000000000000000000000000000000000000000000c000008000800000001000000000000000000000000000000000000000000000c000008000800000000000000000000000000000000000000000000000000000e000000000400000061040000000000000000000000000000000000000000000e0000020000000000600300000000000000000000000000000000000000000004020000000000000000000000000000000000000000000000000000000000000a0000000000000000040702f7010000000000000000000000000000000000000e0000080000000000600600000000000000000000000000000000000000000018000008000400000000050000000000000000000000000000000000000000000e000004000000000060050000000000000000000000000000000000000000000e000000000200000061040000000000000000000000000000000000000000000202000400010000000000000000000000000000000000000000000000000000070000000000000000033a0600000000000000000000000000000000000000000e000000000800000061060000000000000000000000000000000000000000000c000002000200000001200000000000000000000000000000000000000000000c000002000200000000000000000000000000000000000000000000000000000e0000000004000000610500000000000000000000000000000000000000000008040002000200000000000000000000000000000000000000000000000000000e0200010000000000000100000000000000000000000000000000000000000002000008000800000000010000000000000000000000000000000000000000000e0000000002000000610300000000000000000000000000000000000000000004080002000000000000000000000000000000000000000000000000000000000a000000000000000002f70107020000000000000000000000000000000000000e000000000200000061040000000000000000000000000000000000000000000c000004000400000001000000000000000000000000000000000000000000000c0000040004000000000000000000000000000000000000000000000000000004040000000000000000000000000000000000000000000000000000000000000a00000000000000000a0c02c6020000000000000000000000000000000000000e000000000400000061020000000000000000000000000000000000000000000202000400010000000000000000000000000000000000000000000000000000070000000000000000033a0600000000000000000000000000000000000000000a000000000000000001c602c60200000000000000000000000000000000000002000010000200000000bf0000000000000000000000000000000000000000000c000004000400000001e0ffffffffffffffffffffffffffffff0000000000000c000004000400000000ffffffffffffffffffffffffffffffff0000000000001a020004000200000002000000000000000000000000000000000000000000000c00000400040000000180ffffffffffffffffffffffffffffff0000000000000c000004000400000000ffffffffffffffffffffffffffffffff00000000000002020004000400000000000000000000000000000000000000000000000000000c0000080008000000017fffffffffffffff00000000000000000000000000000c0000080008000000000000000000000000000000000000000000000000000004040008000000000000000000000000000000000000000000000000000000000a0000000000000000081b02b5020000000000000000000000000000000000000c000002000200000001000000000000000000000000000000000000000000000c000002000200000000000000000000000000000000717b484e0000000000000e000002000000000020000000000000000000000000000000000000000000000c000001000100000001410000000000000000000000000000000000000000000c000001000100000000000000000000000000000000000000000000000000000c000002000200000001040000000000000000000000000000000000000000000c0000020002000000000000000000000000000000000000000000000000000007000000000000000003620600000000000000000000000000000000000000000c000002000200000001240000000000000000000000000000000000000000000c000002000200000000000000000000000000000000000000000000000000000e000002000000000000000000000000000000000000000000000000000000000c000004000400000001000000000000000000000000000000000000000000000c000004000400000000000000000000000000000000000000000000000000000c000002000200000001200000000000000000000000000000000000000000000c000002000200000000000000000000000000000000000000000000000000000a0000000000000000012e022e02000000000000000000000000000000000000020800000004000000000000000000000000000000000000000000000000000004100000000000000000000000000000000000000000000000000000000000000a00000000000000000a2e02c802000000000000000000000000000000000000180000040008000000000500000000000000000000000000000000000000000008080002000800000000000000000000000000000000000000000000000000000e080000001000000021000000000000000000000000000000000000000000000e0800100000000000000100000000000000000000000000000000000000000002000004000800000000010000000000000000000000000000000000000000000c000010001000000001010000000000000000000000000000000000000000000c0000100010000000000000000000000000000000000000000000000000000004080004000000000000000000000000000000000000000000000000000000000a0000000000000000022b0237020000000000000000000000000000000000000c000010001000000001000000000000000000000000000000000000000000000c000010001000000000000000000000000000000000000000000000000000000a0000000000000000012b022b020000000000000000000000000000000000000c000002000200000001ffffffffffffffffffffffffffffffff0000000000000c000002000200000000ffffffffffffffffffffffff000000000000000000000e000000000400000001020000000000000000000000000000000000000000001a040002000200000002000000000000000000000000000000000000000000000c000004000400000001000000000000000000000000000000000000000000000c000004000400000000000000000000000000000000ffffffff0000000000000e000000000800000021010000000000000000000000000000000000000000001a080004000400000002000000000000000000000000000000000000000000001a040002000200000004000000000000000000000000000000000000000000000e000002000000000000020000000000000000000000000000000000000000000a000000000000000001120312030000000000000000000000000000000000000e000000002000000021020000000000000000000000000000000000000000000e000000000200000041000000000000000000000000000000000000000000001a0000020004000000021f0000000000000000000000000000000000000000000e000004000000000060030000000000000000000000000000000000000000001a000002000200000002e0ffffff0000000000000000000000000000000000000e0000020000000000600200000000000000000000000000000000000000000018000002000400000002050000000000000000000000000000000000000000000e000020000000000060060000000000000000000000000000000000000000000c000002000200000001000000000000000000000000000000000000000000000c000002000200000000000000000000000000000000000000000000000000000e0000040000000000600400000000000000000000000000000000000000000004040000000000000000000000000000000000000000000000000000000000000a000000000000000004600252020000000000000000000000000000000000000e00000200000000006005000000000000000000000000000000000000000000180000020004000000000500000000000000000000000000000000000000000002200004000200000000000000000000000000000000000000000000000000000c000008000800000001200000000000000000000000000000000000000000000c0000080008000000000000000000000000000000000000000000000000000008040008000400000000000000000000000000000000000000000000000000000e0400000001000000410100000000000000000000000000000000000000000007000000000000000003620600000000000000000000000000000000000000000e000000000200000061050000000000000000000000000000000000000000000e0000000020000000610600000000000000000000000000000000000000000002000002000200000000010000000000000000000000000000000000000000000e0000000004000000610400000000000000000000000000000000000000000004020004000000000000000000000000000000000000000000000000000000000a000000000000000002520260020000000000000000000000000000000000000e0000000002000000610300000000000000000000000000000000000000000004020000000000000000000000000000000000000000000000000000000000000a0000000000000000047e02630200000000000000000000000000000000000018000002000200000000030000000000000000000000000000000000000000000c000004000400000001000100000000000000000000000000000000000000000c0000040004000000000000000000000000000000000000000000000000000004040002000400000000000000000000000000000000000000000000000000000c000008000800000001ffffffffffffffffffffffffffffffff0000000000000c000008000800000000ffffffffffffffffffffffffffffffff00000000000018040008000400000000000000000000000000000000000000000000000000000c000010001000000001200000000000000000000000000000000000000000000c000010001000000000000000000000000000000000000000000000000000000e0000000040000000610200000000000000000000000000000000000000000008400010001000000000000000000000000000000000000000000000000000000e100000001000000041010000000000000000000000000000000000000000001a100004000400000002000000000000000000000000000000000000000000000e0000040000000000600500000000000000000000000000000000000000000018020008000200000002000000000000000000000000000000000000000000000e0000020000000000600300000000000000000000000000000000000000000002200040000200000000000000000000000000000000000000000000000000000e000002000000000060040000000000000000000000000000000000000000000202000000010000000000000000000000000000000000000000000000000000070000000000000000033a0600000000000000000000000000000000000000000e000000000200000061030000000000000000000000000000000000000000001a010002000200000002000000000000000000000000000000000000000000000e000000000400000061050000000000000000000000000000000000000000001a040002000100000004000000000000000000000000000000000000000000000e0000000002000000610400000000000000000000000000000000000000000007000000000000000003620600000000000000000000000000000000000000000e000000002000000061060000000000000000000000000000000000000000000c000008000800000001000000000000000000000000000000000000000000000c000008000800000000000000000000000000000000000000000000000000000e000000000400000041000000000000000000000000000000000000000000001a0000040002000000021f0000000000000000000000000000000000000000000e000002000000000060020000000000000000000000000000000000000000000e000004000000000060010000000000000000000000000000000000000000001a000004000200000002ffffffff0000000000000000000000000000000000000e0000020000000000000000000000000000000000000000000000000000000018000002000200000002050000000000000000000000000000000000000000000e0000020000000000600300000000000000000000000000000000000000000004020000000000000000000000000000000000000000000000000000000000000a0000000000000000049a028a020000000000000000000000000000000000000e0000080000000000600500000000000000000000000000000000000000000018000008000200000000050000000000000000000000000000000000000000000e000002000000000060040000000000000000000000000000000000000000000220000200010000000000000000000000000000000000000000000000000000070000000000000000033a0600000000000000000000000000000000000000000e000000000800000061050000000000000000000000000000000000000000000e000000002000000061060000000000000000000000000000000000000000000c000002000200000001200000000000000000000000000000000000000000000c000002000200000000000000000000000000000000000000000000000000000e0000000004000000610400000000000000000000000000000000000000000008040002000200000000000000000000000000000000000000000000000000000e0200010000000000000100000000000000000000000000000000000000000002000008000800000000010000000000000000000000000000000000000000000e0000000002000000610300000000000000000000000000000000000000000004080002000000000000000000000000000000000000000000000000000000000a0000000000000000028a029a020000000000000000000000000000000000000e0000000002000000610200000000000000000000000000000000000000000004020000000000000000000000000000000000000000000000000000000000000a00000000000000000412039d020000000000000000000000000000000000000e000000000400000061010000000000000000000000000000000000000000001a000004000400000002e0ffffff0000000000000000000000000000000000000e000004000000000060060000000000000000000000000000000000000000000220000400010000000000000000000000000000000000000000000000000000070000000000000000033a0600000000000000000000000000000000000000000c000002000200000001200000000000000000000000000000000000000000000c000002000200000000000000000000000000000000000000000000000000000e0000000004000000610600000000000000000000000000000000000000000008040002000200000000000000000000000000000000000000000000000000000e0000000004000000610200000000000000000000000000000000000000000018000004000400000000030000000000000000000000000000000000000000000c000008000800000001ffffffffffffffffffffffffffffffff0000000000000c000008000800000000ffffffffffffffffffffffffffffffff00000000000018040008001000000002000000000000000000000000000000000000000000000e020000002000000001010000000000000000000000000000000000000000001a200010001000000002000000000000000000000000000000000000000000000c000020002000000001000100000000000000000000000000000000000000000c00002000200000000000000000000000000000000000000000000000000000042000040004000000000000000000000000000000000000000000000000000018040008000400000000000000000000000000000000000000000000000000001a010004000400000002000000000000000000000000000000000000000000001a040010000400000004000000000000000000000000000000000000000000000e020004000000000000010000000000000000000000000000000000000000000a000000000000000001120312030000000000000000000000000000000000000e000002000000000020020000000000000000000000000000000000000000000e000010000000000020040000000000000000000000000000000000000000000e0000000002000000610500000000000000000000000000000000000000000002020010000200000000000000000000000000000000000000000000000000000e000000000400000001000000000000000000000000000000000000000000001a000004000400000002ffffffff0000000000000000000000000000000000000e0000000008000000610600000000000000000000000000000000000000000004020004000000000000000000000000000000000000000000000000000000000a000000000000000008be02d3020000000000000000000000000000000000000c000002000200000001000000000000000000000000000000000000000000000c000002000200000000000000000000000000000000000000000000000000000e000002000000000000000000000000000000000000000000000000000000000c000002000200000001010000000000000000000000000000000000000000000c000002000200000000000000000000000000000000000000000000000000000e000000000400000021ffff000000000000000000000000000000000000000004040002000000000000000000000000000000000000000000000000000000000a000000000000000004c6021d030000000000000000000000000000000000000e0000000000000000e10500000000000000000000000000000000000000000007000000000000000000000000000000000000000000000000000000000000000c000002000200000001ffffffffffffffffffffffffffffffff0000000000000c000002000200000000ffffffffffffffffffffffff000000000000000000000e000000000400000001020000000000000000000000000000000000000000001a040002000200000002000000000000000000000000000000000000000000000c000004000400000001000000000000000000000000000000000000000000000c000004000400000000000000000000000000000000ffffffff0000000000000e000000000800000021010000000000000000000000000000000000000000001a080004000400000002000000000000000000000000000000000000000000001a040002000200000004000000000000000000000000000000000000000000000e000002000000000000020000000000000000000000000000000000000000000a000000000000000001120312030000000000000000000000000000000000000c000020002000000001000000000000000000000000000000000000000000000c000020002000000000000000000000000000000000000000000000000000001a0000100002000000021f0000000000000000000000000000000000000000000e0000020000000000600100000000000000000000000000000000000000000002000008000400000000440000000000000000000000000000000000000000000e0000100000000000600200000000000000000000000000000000000000000018000010000200000002050000000000000000000000000000000000000000000e000002000000000060030000000000000000000000000000000000000000000e0000040000000000600400000000000000000000000000000000000000000004020000000000000000000000000000000000000000000000000000000000000a000000000000000004ee02de020000000000000000000000000000000000000e0000200000000000600600000000000000000000000000000000000000000018000020000200000000050000000000000000000000000000000000000000000e000002000000000060050000000000000000000000000000000000000000000204000200010000000000000000000000000000000000000000000000000000070000000000000000034e0600000000000000000000000000000000000000000e000000002000000061060000000000000000000000000000000000000000000e000000000400000061040000000000000000000000000000000000000000000c000002000200000001200000000000000000000000000000000000000000000c000002000200000000000000000000000000000000000000000000000000000e0000000008000000610500000000000000000000000000000000000000000008080002000200000000000000000000000000000000000000000000000000000e0200010000000000200500000000000000000000000000000000000000000002000020002000000000010000000000000000000000000000000000000000000e0000000002000000610300000000000000000000000000000000000000000004200002000000000000000000000000000000000000000000000000000000000a000000000000000002de02ee020000000000000000000000000000000000000e000000000800000061020000000000000000000000000000000000000000000e0000000002000000610100000000000000000000000000000000000000000004020000000000000000000000000000000000000000000000000000000000000a0000000000000000040b03f2020000000000000000000000000000000000000c000002000200000001e0ffffffffffffffffffffffffffffff0000000000000c000002000200000000ffffffffffffffffffffffffffffffff0000000000001a080002000200000002000000000000000000000000000000000000000000000e000002000000000060060000000000000000000000000000000000000000000204000200010000000000000000000000000000000000000000000000000000070000000000000000034e0600000000000000000000000000000000000000000c000002000200000001200000000000000000000000000000000000000000000c000002000200000000000000000000000000000000000000000000000000000e0000000004000000610600000000000000000000000000000000000000000008040002000200000000000000000000000000000000000000000000000000000e0000000004000000610100000000000000000000000000000000000000000018000004000400000000030000000000000000000000000000000000000000000c000008000800000001ffffffffffffffffffffffffffffffff0000000000000c000008000800000000ffffffffffffffffffffffffffffffff00000000000018040008001000000002000000000000000000000000000000000000000000000e020000002000000021050000000000000000000000000000000000000000001a200010001000000002000000000000000000000000000000000000000000000c000020002000000001000100000000000000000000000000000000000000000c00002000200000000000000000000000000000000000000000000000000000042000040004000000000000000000000000000000000000000000000000000018040008000400000000000000000000000000000000000000000000000000000e000000000800000061020000000000000000000000000000000000000000001a010004000400000002000000000000000000000000000000000000000000001a040010000400000004000000000000000000000000000000000000000000000e0200040000000000200500000000000000000000000000000000000000000002000008000200000000a00000000000000000000000000000000000000000000c000001000100000001000000000000000000000000000000000000000000000c000001000100000000000000000000000000000000000000000000000000000700000000000000000362060000000000000000000000000000000000000000070000000000000000035f0500000000000000000000000000000000000000000a000000000000000002110319030000000000000000000000000000000000000a000000000000000001120312030000000000000000000000000000000000000c000002000200000001010000000000000000000000000000000000000000000c000002000200000000000000000000000000000000000000000000000000000e000000000400000021ffff000000000000000000000000000000000000000004040002000000000000000000000000000000000000000000000000000000000a000000000000000004c60217030000000000000000000000000000000000000e0000000000000000e10500000000000000000000000000000000000000000007000000000000000004000000000000000000000000000000000000000000000c000002000200000001000000000000000000000000000000000000000000000c000002000200000000000000000000000000000000000000000000000000000e000002000000000000000000000000000000000000000000000000000000000a000000000000000001c602c6020000000000000000000000000000000000000e0000000000000000e10500000000000000000000000000000000000000000007000000000000000004000000000000000000000000000000000000000000001a0000010004000000020100000000000000000000000000000000000000000018000001000800000002010000000000000000000000000000000000000000001a0000080002000000027f00000000000000000000000000000000000000000004040000000000000000000000000000000000000000000000000000000000000a0000000000000000042503240300000000000000000000000000000000000002080000000200000000000000000000000000000000000000000000000000000c0000200020000000011f0000000000000000000000000000000000000000000c000020002000000000000000000000000000000000000000000000000000000c000010001000000001010000000000000000000000000000000000000000000c000010001000000000000000000000000000000000000000000000000000000c000008000800000001010000000000000000000000000000000000000000000c0000080008000000000000000000000000000000000000000000000000000004020020000000000000000000000000000000000000000000000000000000000a0000000000000000082f032d030000000000000000000000000000000000000c000008000800000001000000000000000000000000000000000000000000000c0000080008000000000000000000000000000000000000000000000000000004040000000000000000000000000000000000000000000000000000000000000a00000000000000000a330331030000000000000000000000000000000000000c000010001000000001000000000000000000000000000000000000000000000c000010001000000000000000000000000000000000000000000000000000001a000010000400000002010000000000000000000000000000000000000000001a0000080008000000020100000000000000000000000000000000000000000004040008000000000000000000000000000000000000000000000000000000000a00000000000000000437033903000000000000000000000000000000000000020200000001000000000000000000000000000000000000000000000000000007000000000000000000000000000000000000000000000000000000000000000c000002000200000001000000000000000000000000000000000000000000000c000002000200000000000000000000000000000000717b484e0000000000000e000002000000000020000000000000000000000000000000000000000000000c000001000100000001220000000000000000000000000000000000000000000c000001000100000000000000000000000000000000000000000000000000000c000002000200000001040000000000000000000000000000000000000000000c0000020002000000000000000000000000000000000000000000000000000007000000000000000003620600000000000000000000000000000000000000000c000002000200000001240000000000000000000000000000000000000000000c000002000200000000000000000000000000000000000000000000000000000e000002000000000000000000000000000000000000000000000000000000000c000004000400000001000000000000000000000000000000000000000000000c000004000400000000000000000000000000000000000000000000000000000c000002000200000001200000000000000000000000000000000000000000000c000002000200000000000000000000000000000000000000000000000000000a0000000000000000014c034c03000000000000000000000000000000000000020800000004000000000000000000000000000000000000000000000000000004100000000000000000000000000000000000000000000000000000000000000a00000000000000000a4c035803000000000000000000000000000000000000180000040008000000000500000000000000000000000000000000000000000008080002000800000000000000000000000000000000000000000000000000000e080000001000000021000000000000000000000000000000000000000000000e0800100000000000000100000000000000000000000000000000000000000002000004000800000000010000000000000000000000000000000000000000000c000010001000000001010000000000000000000000000000000000000000000c0000100010000000000000000000000000000000000000000000000000000004080004000000000000000000000000000000000000000000000000000000000a000000000000000002490355030000000000000000000000000000000000000c000010001000000001000000000000000000000000000000000000000000000c000010001000000000000000000000000000000000000000000000000000000a000000000000000001490349030000000000000000000000000000000000000c000002000200000001ffffffffffffffffffffffffffffffff0000000000000c000002000200000000ffffffffffffffffffffffff000000000000000000000e000000000400000001020000000000000000000000000000000000000000001a040002000200000002000000000000000000000000000000000000000000000c000004000400000001000000000000000000000000000000000000000000000c000004000400000000000000000000000000000000ffffffff0000000000000e000000000800000021010000000000000000000000000000000000000000001a080004000400000002000000000000000000000000000000000000000000001a040002000200000004000000000000000000000000000000000000000000000e0000020000000000000200000000000000000000000000000000000000000007000000000000000004000000000000000000000000000000000000000000000e0000000000000000e00100000000000000000000000000000000000000000002010000000800000000000000000000000000000000000000000000000000000c0000040004000000011f0000000000000000000000000000000000000000000c0000040004000000000000000000000000000000000000000000000000000004080004000000000000000000000000000000000000000000000000000000000a00000000000000000869039c030000000000000000000000000000000000000e000008000000000060020000000000000000000000000000000000000000000c000008000800000001000000000000000000000000000000000000000000000c000008000800000000000000000000000000000000000000000000000000000e0000080000000000200000000000000000000000000000000000000000000010000000000000000000000000000000000000000000000000000000000000000c000004000400000001200000000000000000000000000000000000000000000c000004000400000000000000000000000000000000000000000000000000000e000004000000000040000000000000000000000000000000000000000000000a00000000000000000175037503000000000000000000000000000000000000021000000008000000000000000000000000000000000000000000000000000004200000000000000000000000000000000000000000000000000000000000000a00000000000000000a75038103000000000000000000000000000000000000180000080010000000000500000000000000000000000000000000000000000008100004001000000000000000000000000000000000000000000000000000000e100000002000000021000000000000000000000000000000000000000000000e1000200000000000400100000000000000000000000000000000000000000002000008001000000000010000000000000000000000000000000000000000000c000020002000000001010000000000000000000000000000000000000000000c0000200020000000000000000000000000000000000000000000000000000004100008000000000000000000000000000000000000000000000000000000000a00000000000000000272037e030000000000000000000000000000000000000c000020002000000001000000000000000000000000000000000000000000000c000020002000000000000000000000000000000000000000000000000000000a000000000000000001720372030000000000000000000000000000000000000c000004000400000001200000000000000000000000000000000000000000000c000004000400000000000000000000000000000000000000000000000000000c000008000800000001000000000000000000000000000000000000000000000c0000080008000000000000000000000000000000000000000000000000000004020004000000000000000000000000000000000000000000000000000000000a00000000000000000289038703000000000000000000000000000000000000020000020002000000001f00000000000000000000000000000000000000000018000002000800000002050000000000000000000000000000000000000000000e000008000000000060010000000000000000000000000000000000000000000c00000100010000000100000000ff03000000000000000000000000000000000c0000010001000000000000000000000000000000000000000000000000000007000000000000000003890600000000000000000000000000000000000000000e000000000400000041010000000000000000000000000000000000000000000e0000000002000000610100000000000000000000000000000000000000000002040002000200000000000000000000000000000000000000000000000000000e00000000080000006102000000000000000000000000000000000000000000020000080008000000001f0000000000000000000000000000000000000000001800000800080000000205000000000000000000000000000000000000000000020400080004000000000000000000000000000000000000000000000000000004020004000000000000000000000000000000000000000000000000000000000a00000000000000000c9c0396030000000000000000000000000000000000000c000008000800000001000000000000000000000000000000000000000000000c000008000800000000000000000000000000000000000000000000000000000502000800000000000000000000000000000000000000000000000000000000020000020002000000000100000000000000000000000000000000000000000004020004000000000000000000000000000000000000000000000000000000000a00000000000000000296039c030000000000000000000000000000000000000e0000000000000000e101000000000000000000000000000000000000000000070000000000000000000000000000000000000000000000000000000000000018000002000400000000030000000000000000000000000000000000000000000c000008000800000001ffffffffffffffffffffffffffffffff0000000000000c000008000800000000ffffffffffffffffffffffffffffffff00000000000018040008000400000002000000000000000000000000000000000000000000001a040008000400000008000000000000000000000000000000000000000000001a0400010004000000020000000000000000000000000000000000000000000018000002000200000000010000000000000000000000000000000000000000001a0400020001000000040000000000000000000000000000000000000000000007000000000000000000000000000000000000000000000000000000000000000e0000000000000000e0050000000000000000000000000000000000000000000e00000100000000006003000000000000000000000000000000000000000000070000000000000000033a06000000000000000000000000000000000000000002010000000400000000000000000000000000000000000000000000000000000c000002000200000001ffffffffffffffff00000000000000000000000000000c000002000200000000000000000000000000000000000000000000000000000e0000040000000000600100000000000000000000000000000000000000000004040002000000000000000000000000000000000000000000000000000000000a0000000000000000082004b0030000000000000000000000000000000000000c000002000200000001000000000000000000000000000000000000000000000c000002000200000000000000000000000000000000000000000000000000000502000000010000000100000000000000000000000000000000000000000000070000000000000000031f0300000000000000000000000000000000000000000a000000000000000002b503b7030000000000000000000000000000000000000e000000000200000061010000000000000000000000000000000000000000000a000000000000000001490449040000000000000000000000000000000000000e0000000002000000610100000000000000000000000000000000000000000007000000000000000003630300000000000000000000000000000000000000000a000000000000000002ba03bc030000000000000000000000000000000000000e000000001000000061010000000000000000000000000000000000000000000a000000000000000001490449040000000000000000000000000000000000000e000000001000000061010000000000000000000000000000000000000000000c0000020002000000011f0000000000000000000000000000000000000000000c0000020002000000000000000000000000000000000000000000000000000004100002000000000000000000000000000000000000000000000000000000000a000000000000000006dc03c1030000000000000000000000000000000000000c000004000400000001000000000000000000000000000000000000000000000c000004000400000000000000000000000000000000000000000000000000000e0000040000000000200000000000000000000000000000000000000000000010000000000000000000000000000000000000000000000000000000000000000c000002000200000001200000000000000000000000000000000000000000000c000002000200000000000000000000000000000000000000000000000000000e000002000000000040000000000000000000000000000000000000000000000c000008000800000001e0ffffffffffffffffffffffffffffff0000000000000c000008000800000000ffffffffffffffffffffffffffffffff0000000000001a100008000800000002000000000000000000000000000000000000000000000e000008000000000060020000000000000000000000000000000000000000000a000000000000000001d003d003000000000000000000000000000000000000020800000004000000000000000000000000000000000000000000000000000004100000000000000000000000000000000000000000000000000000000000000a00000000000000000ad003e503000000000000000000000000000000000000180000040008000000000500000000000000000000000000000000000000000008080002000800000000000000000000000000000000000000000000000000000e080000001000000021000000000000000000000000000000000000000000000e0800100000000000400100000000000000000000000000000000000000000002000004000800000000010000000000000000000000000000000000000000000c000010001000000001010000000000000000000000000000000000000000000c0000100010000000000000000000000000000000000000000000000000000004080004000000000000000000000000000000000000000000000000000000000a000000000000000002cd03d9030000000000000000000000000000000000000c000010001000000001000000000000000000000000000000000000000000000c000010001000000000000000000000000000000000000000000000000000000a000000000000000001cd03cd0300000000000000000000000000000000000004100000000000000000000000000000000000000000000000000000000000000a0000000000000000041504de030000000000000000000000000000000000000e000000000200000061030000000000000000000000000000000000000000000200000200010000000020000000000000000000000000000000000000000000070000000000000000033a0600000000000000000000000000000000000000000e00000000020000006101000000000000000000000000000000000000000000070000000000000000039e03000000000000000000000000000000000000000002010000000200000000000000000000000000000000000000000000000000000a0000000000000000011b041b040000000000000000000000000000000000000c00000100010000000100000000ff03000000000000000000000000000000000c0000010001000000000000000000000000000000000000000000000000000007000000000000000003890600000000000000000000000000000000000000000c000002000200000001000000000000000000000000000000000000000000000c000002000200000000000000000000000000000000000000000000000000000c000020002000000001200000000000000000000000000000000000000000000c000020002000000000000000000000000000000000000000000000000000000e000000001000000041010000000000000000000000000000000000000000000e000000000400000061030000000000000000000000000000000000000000000e0000000004000000610200000000000000000000000000000000000000000004040000000000000000000000000000000000000000000000000000000000000a0000000000000000040104f1030000000000000000000000000000000000000e000002000000000060040000000000000000000000000000000000000000000e000020000000000060050000000000000000000000000000000000000000000e000010000000000060060000000000000000000000000000000000000000000e000000000200000061030000000000000000000000000000000000000000000220000200010000000000000000000000000000000000000000000000000000070000000000000000033a0600000000000000000000000000000000000000000e000000000200000061040000000000000000000000000000000000000000000e000000002000000061050000000000000000000000000000000000000000000e000000001000000061060000000000000000000000000000000000000000000e00000000040000006102000000000000000000000000000000000000000000051000010000000000000000000000000000000000000000000000000000000002000020002000000000200000000000000000000000000000000000000000000200001000100000000001000000000000000000000000000000000000000000020000020002000000002000000000000000000000000000000000000000000004020004000000000000000000000000000000000000000000000000000000000a000000000000000002f10301040000000000000000000000000000000000000e000000000800000061010000000000000000000000000000000000000000000e0000000002000000610300000000000000000000000000000000000000000004040008000000000000000000000000000000000000000000000000000000000a00000000000000000c1204050400000000000000000000000000000000000002200002000100000000000000000000000000000000000000000000000000000e00001000000000006006000000000000000000000000000000000000000000070000000000000000033a0600000000000000000000000000000000000000000e0000000008000000610100000000000000000000000000000000000000000018000008000200000000030000000000000000000000000000000000000000001a000002000200000002f80000000000000000000000000000000000000000000c000004000400000001ffffffffffffffffffffffffffffffff0000000000000c000004000400000000ffffffffffffffffffffffffffffffff00000000000018020004000200000002000000000000000000000000000000000000000000001a020004000200000008000000000000000000000000000000000000000000001a010002000200000002000000000000000000000000000000000000000000000e00000000040000006106000000000000000000000000000000000000000000050400020000000000000000000000000000000000000000000000000000000018000008000200000000010000000000000000000000000000000000000000001a000002000200000004010000000000000000000000000000000000000000000a0000000000000000011b041b040000000000000000000000000000000000000c000001000100000001000000000000000000000000000000000000000000000c000001000100000000000000000000000000000000000000000000000000000c000002000200000001000000000000000000000000000000000000000000000c00000200020000000000000000000000000000000000000000000000000000070000000000000000039e03000000000000000000000000000000000000000002010000000200000000000000000000000000000000000000000000000000000c000004000400000001000000000000000000000000000000000000000000000c0000040004000000000000000000000000000000000000000000000000000005040002000000000000000000000000000000000000000000000000000000000e0000000000000000e10500000000000000000000000000000000000000000007000000000000000000000000000000000000000000000000000000000000000c000002000200000001000000000000000000000000000000000000000000000c000002000200000000000000000000000000000000717b484e0000000000000e000002000000000020000000000000000000000000000000000000000000000c000001000100000001410000000000000000000000000000000000000000000c000001000100000000000000000000000000000000000000000000000000000c000002000200000001040000000000000000000000000000000000000000000c0000020002000000000000000000000000000000000000000000000000000007000000000000000003620600000000000000000000000000000000000000000c000002000200000001240000000000000000000000000000000000000000000c000002000200000000000000000000000000000000000000000000000000000e000002000000000000000000000000000000000000000000000000000000000c000004000400000001000000000000000000000000000000000000000000000c000004000400000000000000000000000000000000000000000000000000000c000002000200000001200000000000000000000000000000000000000000000c000002000200000000000000000000000000000000000000000000000000000a00000000000000000133043304000000000000000000000000000000000000020800000004000000000000000000000000000000000000000000000000000004100000000000000000000000000000000000000000000000000000000000000a00000000000000000a33043f04000000000000000000000000000000000000180000040008000000000500000000000000000000000000000000000000000008080002000800000000000000000000000000000000000000000000000000000e080000001000000021000000000000000000000000000000000000000000000e0800100000000000000100000000000000000000000000000000000000000002000004000800000000010000000000000000000000000000000000000000000c000010001000000001010000000000000000000000000000000000000000000c0000100010000000000000000000000000000000000000000000000000000004080004000000000000000000000000000000000000000000000000000000000a00000000000000000230043c040000000000000000000000000000000000000c000010001000000001000000000000000000000000000000000000000000000c000010001000000000000000000000000000000000000000000000000000000a000000000000000001300430040000000000000000000000000000000000000c000002000200000001ffffffffffffffffffffffffffffffff0000000000000c000002000200000000ffffffffffffffffffffffff000000000000000000000e000000000400000001020000000000000000000000000000000000000000001a040002000200000002000000000000000000000000000000000000000000000c000004000400000001000000000000000000000000000000000000000000000c000004000400000000000000000000000000000000ffffffff0000000000000e000000000800000021010000000000000000000000000000000000000000001a080004000400000002000000000000000000000000000000000000000000001a040002000200000004000000000000000000000000000000000000000000000e000002000000000000020000000000000000000000000000000000000000000e0000000000000000e10500000000000000000000000000000000000000000007000000000000000004000000000000000000000000000000000000000000000c000002000200000001fcffffffffffffffffffffffffffffff0000000000000c000002000200000000ffffffffffffffffffffffffffffffff00000000000002010002000800000000000000000000000000000000000000000000000000000c000010001000000001200000000000000000000000000000000000000000000c000010001000000000000000000000000000000000000000000000000000000c000004000400000001000000000000000000000000000000000000000000000c000004000400000000000000000000000000000000000000800000000000000c000002000200000001000000000000000000000000000000000000000000000c0000020002000000000000000000000000000000000000008000000000000004080010000000000000000000000000000000000000000000000000000000000a00000000000000000c580456040000000000000000000000000000000000000c000002000200000001000000000000000000000000000000000000000000000c000002000200000000000000000000000000000000000000000000000000001a080004001000000002000000000000000000000000000000000000000000000c000008000800000001000000000000000000000000000000000000000000000c0000080008000000000000000000000000000000000000008000000000000004100000000000000000000000000000000000000000000000000000000000000a0000000000000000025f045d040000000000000000000000000000000000000c000008000800000001000000000000000000000000000000000000000000000c0000080008000000000000000000000000000000000000000000000000000004100004000000000000000000000000000000000000000000000000000000000a00000000000000000462046104000000000000000000000000000000000000020200000008000000000000000000000000000000000000000000000000000004080000000000000000000000000000000000000000000000000000000000000a00000000000000000a64046c040000000000000000000000000000000000000c000001000100000001240000000000000000000000000000000000000000000c00000100010000000000000000000000000000000000000000000000000000070000000000000000034e0600000000000000000000000000000000000000000c000002000200000001ffffffffffffffffffffffffffffffff0000000000000c000002000200000000ffffffff00000000000000000000000000000000000004010002000000000000000000000000000000000000000000000000000000000a0000000000000000086c046b0400000000000000000000000000000000000007000000000000000000000000000000000000000000000000000000000000000c000002000200000001000000000000000000000000000000000000000000000c000002000200000000000000000000000000000000000000000000000000000e0000020000000000000000000000000000000000000000000000000000000007000000000000000004000000000000000000000000000000000000000000000e0000000000000000e0040000000000000000000000000000000000000000000c000002000200000001000000000000000000000000000000000000000000000c0000020002000000000000000000000000000000000000000000000000000005020000000200000001000000000000000000000000000000000000000000001a000002002000000002010000000000000000000000000000000000000000000e0000020000000000600400000000000000000000000000000000000000000018000002000200000002010000000000000000000000000000000000000000001a0000020010000000027f00000000000000000000000000000000000000000004200000000000000000000000000000000000000000000000000000000000000a0000000000000000047b047a0400000000000000000000000000000000000002020000001000000000000000000000000000000000000000000000000000000c0000080008000000011f0000000000000000000000000000000000000000000c000008000800000000000000000000000000000000000000000000000000000c000004000400000001010000000000000000000000000000000000000000000c000004000400000000000000000000000000000000000000000000000000000c000002000200000001010000000000000000000000000000000000000000000c0000020002000000000000000000000000000000000000000000000000000004100008000000000000000000000000000000000000000000000000000000000a000000000000000008850483040000000000000000000000000000000000000c000002000200000001000000000000000000000000000000000000000000000c0000020002000000000000000000000000000000000000000000000000000004200000000000000000000000000000000000000000000000000000000000000a00000000000000000a890487040000000000000000000000000000000000000c000004000400000001000000000000000000000000000000000000000000000c000004000400000000000000000000000000000000000000000000000000000e000020000000000060050000000000000000000000000000000000000000001a000004000400000002010000000000000000000000000000000000000000001a0000020002000000020100000000000000000000000000000000000000000004040002000000000000000000000000000000000000000000000000000000000a0000000000000000048e04cf040000000000000000000000000000000000000e0000000002000000210200000000000000000000000000000000000000000002100000000100000000000000000000000000000000000000000000000000000e000002000000000060010000000000000000000000000000000000000000000e0000100000000000600300000000000000000000000000000000000000000007000000000000000003620600000000000000000000000000000000000000000e0000000002000000610500000000000000000000000000000000000000000004020000000000000000000000000000000000000000000000000000000000000a0000000000000000049604a0040000000000000000000000000000000000000c00000200020000000100ffffffffffffffffffffffffffffff0000000000000c000002000200000000ffffffffffffffffffffffffffffffff0000000000000e000000000400000061040000000000000000000000000000000000000000001a040002000100000002000000000000000000000000000000000000000000000e00000000020000006101000000000000000000000000000000000000000000020000020002000000002000000000000000000000000000000000000000000007000000000000000003620600000000000000000000000000000000000000000e0000000002000000610100000000000000000000000000000000000000000002000002000200000000400000000000000000000000000000000000000000000a000000000000000001b804b8040000000000000000000000000000000000000c00000800080000000163e5f30e16932f36f608404895bca64b0000000000000c000008000800000000c86f3888a94503d6a8628b54d9ec0d290000000000000c000010001000000001000000000000000000000000000000000000000000000c000010001000000000000000000000000000000000000000000000000000000e000010000000000020000000000000000000000000000000000000000000000e0000000002000000610100000000000000000000000000000000000000000002000002000200000000200000000000000000000000000000000000000000000e000002000000000060020000000000000000000000000000000000000000000e0000000004000000610300000000000000000000000000000000000000000004040000000000000000000000000000000000000000000000000000000000000a000000000000000004b804ab040000000000000000000000000000000000000e000010000000000060040000000000000000000000000000000000000000000e00000800000000006005000000000000000000000000000000000000000000050800000001000000010000000000000000000000000000000000000000000007000000000000000003620600000000000000000000000000000000000000000e000000001000000061040000000000000000000000000000000000000000000e000000000800000061050000000000000000000000000000000000000000000e00000000040000006103000000000000000000000000000000000000000000020000080008000000000100000000000000000000000000000000000000000002000010001000000000200000000000000000000000000000000000000000000e00000000020000006102000000000000000000000000000000000000000000020200100002000000000000000000000000000000000000000000000000000004100004000000000000000000000000000000000000000000000000000000000a000000000000000002ab04b8040000000000000000000000000000000000000e000000001000000061010000000000000000000000000000000000000000000402001000020000000000000000000000000000000000000000000000000000020000020002000000001f0000000000000000000000000000000000000000000c000004000400000001e0ffffffffffffffffffffffffffffff0000000000000c000004000400000000ffffffffffffffffffffffffffffffff0000000000001a0200040008000000020000000000000000000000000000000000000000000002080010000200000000000000000000000000000000000000000000000000000c000004000400000001010000000000000000000000000000000000000000000c0000040004000000000000000000000000000000000000000000000000000004020008000000000000000000000000000000000000000000000000000000000a000000000000000002c504c3040000000000000000000000000000000000000c000004000400000001000000000000000000000000000000000000000000000c000004000400000000000000000000000000000000000000000000000000000c000008000800000001ffffffffffffffff00000000000000000000000000000c0000080008000000000000000000000000000000000000000000000000000004020008000000000000000000000000000000000000000000000000000000000a000000000000000008f904c90400000000000000000000000000000000000004040000000000000000000000000000000000000000000000000000000000000a00000000000000000af904cb040000000000000000000000000000000000000e0000020000000000200200000000000000000000000000000000000000000002100000000100000000000000000000000000000000000000000000000000000e0000000000000000e10400000000000000000000000000000000000000000007000000000000000000000000000000000000000000000000000000000000000c000002000200000001000000000000000000000000000000000000000000000c000002000200000000000000000000000000000000717b484e0000000000000e000002000000000020000000000000000000000000000000000000000000000c000001000100000001220000000000000000000000000000000000000000000c000001000100000000000000000000000000000000000000000000000000000c000002000200000001040000000000000000000000000000000000000000000c0000020002000000000000000000000000000000000000000000000000000007000000000000000003620600000000000000000000000000000000000000000c000002000200000001240000000000000000000000000000000000000000000c000002000200000000000000000000000000000000000000000000000000000e000002000000000000000000000000000000000000000000000000000000000c000004000400000001000000000000000000000000000000000000000000000c000004000400000000000000000000000000000000000000000000000000000c000002000200000001200000000000000000000000000000000000000000000c000002000200000000000000000000000000000000000000000000000000000a000000000000000001e204e204000000000000000000000000000000000000020800000004000000000000000000000000000000000000000000000000000004100000000000000000000000000000000000000000000000000000000000000a00000000000000000ae204ee04000000000000000000000000000000000000180000040008000000000500000000000000000000000000000000000000000008080002000800000000000000000000000000000000000000000000000000000e080000001000000021000000000000000000000000000000000000000000000e0800100000000000000100000000000000000000000000000000000000000002000004000800000000010000000000000000000000000000000000000000000c000010001000000001010000000000000000000000000000000000000000000c0000100010000000000000000000000000000000000000000000000000000004080004000000000000000000000000000000000000000000000000000000000a000000000000000002df04eb040000000000000000000000000000000000000c000010001000000001000000000000000000000000000000000000000000000c000010001000000000000000000000000000000000000000000000000000000a000000000000000001df04df040000000000000000000000000000000000000c000002000200000001ffffffffffffffffffffffffffffffff0000000000000c000002000200000000ffffffffffffffffffffffff000000000000000000000e000000000400000001020000000000000000000000000000000000000000001a040002000200000002000000000000000000000000000000000000000000000c000004000400000001000000000000000000000000000000000000000000000c000004000400000000000000000000000000000000ffffffff0000000000000e000000000800000021010000000000000000000000000000000000000000001a080004000400000002000000000000000000000000000000000000000000001a040002000200000004000000000000000000000000000000000000000000000e000002000000000000020000000000000000000000000000000000000000000a000000000000000001220522050000000000000000000000000000000000000c000002000200000001000000000000000000000000000000000000000000000c000002000200000000000000000000000000000000717b484e0000000000000e000002000000000020000000000000000000000000000000000000000000000c000001000100000001410000000000000000000000000000000000000000000c000001000100000000000000000000000000000000000000000000000000000c000002000200000001040000000000000000000000000000000000000000000c0000020002000000000000000000000000000000000000000000000000000007000000000000000003620600000000000000000000000000000000000000000c000002000200000001240000000000000000000000000000000000000000000c000002000200000000000000000000000000000000000000000000000000000e000002000000000000000000000000000000000000000000000000000000000c000004000400000001000000000000000000000000000000000000000000000c000004000400000000000000000000000000000000000000000000000000000c000002000200000001200000000000000000000000000000000000000000000c000002000200000000000000000000000000000000000000000000000000000a0000000000000000010c050c05000000000000000000000000000000000000020800000004000000000000000000000000000000000000000000000000000004100000000000000000000000000000000000000000000000000000000000000a00000000000000000a0c051805000000000000000000000000000000000000180000040008000000000500000000000000000000000000000000000000000008080002000800000000000000000000000000000000000000000000000000000e080000001000000021000000000000000000000000000000000000000000000e0800100000000000000100000000000000000000000000000000000000000002000004000800000000010000000000000000000000000000000000000000000c000010001000000001010000000000000000000000000000000000000000000c0000100010000000000000000000000000000000000000000000000000000004080004000000000000000000000000000000000000000000000000000000000a000000000000000002090515050000000000000000000000000000000000000c000010001000000001000000000000000000000000000000000000000000000c000010001000000000000000000000000000000000000000000000000000000a000000000000000001090509050000000000000000000000000000000000000c000002000200000001ffffffffffffffffffffffffffffffff0000000000000c000002000200000000ffffffffffffffffffffffff000000000000000000000e000000000400000001020000000000000000000000000000000000000000001a040002000200000002000000000000000000000000000000000000000000000c000004000400000001000000000000000000000000000000000000000000000c000004000400000000000000000000000000000000ffffffff0000000000000e000000000800000021010000000000000000000000000000000000000000001a080004000400000002000000000000000000000000000000000000000000001a040002000200000004000000000000000000000000000000000000000000000e000002000000000000020000000000000000000000000000000000000000000e0000000000000000e10400000000000000000000000000000000000000000007000000000000000004000000000000000000000000000000000000000000000e0000000000000000e00100000000000000000000000000000000000000000002010000000800000000000000000000000000000000000000000000000000000c0000040004000000011f0000000000000000000000000000000000000000000c0000040004000000000000000000000000000000000000000000000000000004080004000000000000000000000000000000000000000000000000000000000a0000000000000000065d052a050000000000000000000000000000000000000e000008000000000060020000000000000000000000000000000000000000000c000008000800000001000000000000000000000000000000000000000000000c000008000800000000000000000000000000000000000000000000000000000e0000080000000000200000000000000000000000000000000000000000000010000000000000000000000000000000000000000000000000000000000000000c000004000400000001200000000000000000000000000000000000000000000c000004000400000000000000000000000000000000000000000000000000000e000004000000000040000000000000000000000000000000000000000000000a00000000000000000136053605000000000000000000000000000000000000021000000008000000000000000000000000000000000000000000000000000004200000000000000000000000000000000000000000000000000000000000000a00000000000000000a36054205000000000000000000000000000000000000180000080010000000000500000000000000000000000000000000000000000008100004001000000000000000000000000000000000000000000000000000000e100000002000000021000000000000000000000000000000000000000000000e1000200000000000400100000000000000000000000000000000000000000002000008001000000000010000000000000000000000000000000000000000000c000020002000000001010000000000000000000000000000000000000000000c0000200020000000000000000000000000000000000000000000000000000004100008000000000000000000000000000000000000000000000000000000000a00000000000000000233053f050000000000000000000000000000000000000c000020002000000001000000000000000000000000000000000000000000000c000020002000000000000000000000000000000000000000000000000000000a000000000000000001330533050000000000000000000000000000000000000c000004000400000001200000000000000000000000000000000000000000000c000004000400000000000000000000000000000000000000000000000000000c000008000800000001000000000000000000000000000000000000000000000c0000080008000000000000000000000000000000000000000000000000000004020004000000000000000000000000000000000000000000000000000000000a0000000000000000024a054805000000000000000000000000000000000000020000020002000000001f00000000000000000000000000000000000000000018000002000800000002050000000000000000000000000000000000000000000e000008000000000060010000000000000000000000000000000000000000000c00000100010000000100000000ff03000000000000000000000000000000000c0000010001000000000000000000000000000000000000000000000000000007000000000000000003890600000000000000000000000000000000000000000e000000000400000041010000000000000000000000000000000000000000000e0000000002000000610100000000000000000000000000000000000000000002040002000200000000000000000000000000000000000000000000000000000e00000000080000006102000000000000000000000000000000000000000000020000080008000000001f0000000000000000000000000000000000000000001800000800080000000205000000000000000000000000000000000000000000020400080004000000000000000000000000000000000000000000000000000004020004000000000000000000000000000000000000000000000000000000000a00000000000000000257055d050000000000000000000000000000000000000c000008000800000001000000000000000000000000000000000000000000000c000008000800000000000000000000000000000000000000000000000000000502000800000000000000000000000000000000000000000000000000000000020000020002000000000100000000000000000000000000000000000000000004020004000000000000000000000000000000000000000000000000000000000a00000000000000000257055d050000000000000000000000000000000000000e0000000000000000e10100000000000000000000000000000000000000000007000000000000000000000000000000000000000000000000000000000000000e0000000000000000e0010000000000000000000000000000000000000000000e000000000200000021040000000000000000000000000000000000000000000c000004000400000001ffffffffffffffff00000000000000000000000000000c0000040004000000000000000000000000000000000000000000000000000004020004000000000000000000000000000000000000000000000000000000000a000000000000000008e50565050000000000000000000000000000000000000c000004000400000001000000000000000000000000000000000000000000000c0000040004000000000000000000000000000000000000000000000000000005040000000800000001000000000000000000000000000000000000000000001a0000080004000000020100000000000000000000000000000000000000000018000008000800000002010000000000000000000000000000000000000000001a0000080040000000027f00000000000000000000000000000000000000000004040000000000000000000000000000000000000000000000000000000000000a0000000000000000046e056d0500000000000000000000000000000000000002080000004000000000000000000000000000000000000000000000000000000c0000200020000000011f0000000000000000000000000000000000000000000c000020002000000000000000000000000000000000000000000000000000000c000010001000000001010000000000000000000000000000000000000000000c000010001000000000000000000000000000000000000000000000000000000c000008000800000001010000000000000000000000000000000000000000000c0000080008000000000000000000000000000000000000000000000000000004400020000000000000000000000000000000000000000000000000000000000a000000000000000008780576050000000000000000000000000000000000000c000008000800000001000000000000000000000000000000000000000000000c0000080008000000000000000000000000000000000000000000000000000004040000000000000000000000000000000000000000000000000000000000000a00000000000000000a7c057a050000000000000000000000000000000000000c000010001000000001000000000000000000000000000000000000000000000c000010001000000000000000000000000000000000000000000000000000001a000010000400000002010000000000000000000000000000000000000000001a0000080008000000020100000000000000000000000000000000000000000004040008000000000000000000000000000000000000000000000000000000000a0000000000000000048005040600000000000000000000000000000000000002400000000100000000000000000000000000000000000000000000000000000e0000020000000000600200000000000000000000000000000000000000000007000000000000000003240500000000000000000000000000000000000000000a000000000000000002840585050000000000000000000000000000000000000a000000000000000001380638060000000000000000000000000000000000000c0000020002000000011f0000000000000000000000000000000000000000000c000002000200000000000000000000000000000000000000000000000000000e0000000020000000610200000000000000000000000000000000000000000004200002000000000000000000000000000000000000000000000000000000000a0000000000000000088a05a5050000000000000000000000000000000000000c000004000400000001000000000000000000000000000000000000000000000c000004000400000000000000000000000000000000000000000000000000000e0000040000000000200000000000000000000000000000000000000000000010000000000000000000000000000000000000000000000000000000000000000c000002000200000001200000000000000000000000000000000000000000000c000002000200000000000000000000000000000000000000000000000000000e000002000000000040000000000000000000000000000000000000000000000c000008000800000001e0ffffffffffffffffffffffffffffff0000000000000c000008000800000000ffffffffffffffffffffffffffffffff0000000000001a200008000800000002000000000000000000000000000000000000000000000e000008000000000060010000000000000000000000000000000000000000000a00000000000000000199059905000000000000000000000000000000000000020800000004000000000000000000000000000000000000000000000000000004100000000000000000000000000000000000000000000000000000000000000a00000000000000000a9905b405000000000000000000000000000000000000180000040008000000000500000000000000000000000000000000000000000008080002000800000000000000000000000000000000000000000000000000000e080000001000000021000000000000000000000000000000000000000000000e0800100000000000400100000000000000000000000000000000000000000002000004000800000000010000000000000000000000000000000000000000000c000010001000000001010000000000000000000000000000000000000000000c0000100010000000000000000000000000000000000000000000000000000004080004000000000000000000000000000000000000000000000000000000000a0000000000000000029605a2050000000000000000000000000000000000000c000010001000000001000000000000000000000000000000000000000000000c000010001000000000000000000000000000000000000000000000000000000a000000000000000001960596050000000000000000000000000000000000000c000004000400000001000000000000000000000000000000000000000000000c000004000400000000000000000000000000000000000000000000000000000c000002000200000001000000000000000000000000000000000000000000000c0000020002000000000000000000000000000000000000000000000000000004200000000000000000000000000000000000000000000000000000000000000a000000000000000004ad05ab050000000000000000000000000000000000000e0000000002000000210500000000000000000000000000000000000000000018000020000400000000030000000000000000000000000000000000000000000c000008000800000001ffffffffffffffffffffffffffffffff0000000000000c000008000800000000ffffffffffffffffffffffffffffffff00000000000018040008000400000002000000000000000000000000000000000000000000001a040008000400000008000000000000000000000000000000000000000000001a0200040004000000020000000000000000000000000000000000000000000018000020000200000000010000000000000000000000000000000000000000000a000000000000000001df05df050000000000000000000000000000000000000c00000100010000000100000000ff03000000000000000000000000000000000c0000010001000000000000000000000000000000000000000000000000000007000000000000000003890600000000000000000000000000000000000000000c000004000400000001200000000000000000000000000000000000000000000c000004000400000000000000000000000000000000000000000000000000000c000008000800000001000000000000000000000000000000000000000000000c000008000800000000000000000000000000000000000000000000000000000c000010001000000001a00000000000000000000000000000000000000000000c000010001000000000000000000000000000000000000000000000000000000e000000000200000041010000000000000000000000000000000000000000000c000020002000000001200000000000000000000000000000000000000000000c000020002000000000000000000000000000000000000000000000000000000e0000000040000000610100000000000000000000000000000000000000000004400000000000000000000000000000000000000000000000000000000000000a000000000000000004cd05c305000000000000000000000000000000000000022000000010000000000000000000000000000000000000000000000000000008100004002000000000000000000000000000000000000000000000000000000e20000000200000002104000000000000000000000000000000000000000000050200200000000000000000000000000000000000000000000000000000000002000010002000000000200000000000000000000000000000000000000000000200000200020000000001000000000000000000000000000000000000000000020000080008000000002000000000000000000000000000000000000000000004080040000000000000000000000000000000000000000000000000000000000a000000000000000002c305cc0500000000000000000000000000000000000002000010001000000000a00000000000000000000000000000000000000000000e0000000020000000610200000000000000000000000000000000000000000004400020000000000000000000000000000000000000000000000000000000000a000000000000000002d005dc0500000000000000000000000000000000000018000020000400000000030000000000000000000000000000000000000000001a000004000400000002f80000000000000000000000000000000000000000000c000008000800000001ffffffffffffffffffffffffffffffff0000000000000c000008000800000000ffffffffffffffffffffffffffffffff00000000000018040008000400000002000000000000000000000000000000000000000000001a040008000400000008000000000000000000000000000000000000000000000c000008000800000001200000000000000000000000000000000000000000000c0000080008000000000000000000000000000000000000000000000000000008100008000800000000000000000000000000000000000000000000000000000e080000000800000021000000000000000000000000000000000000000000001a0800040004000000020000000000000000000000000000000000000000000005020004000000000000000000000000000000000000000000000000000000000c000002000200000001010000000000000000000000000000000000000000000c0000020002000000000000000000000000000000000000000000000000000018000020000400000000010000000000000000000000000000000000000000001a040002000200000004000000000000000000000000000000000000000000000c000004000400000001000000000000000000000000000000000000000000000c0000040004000000000000000000000000000000000000000000000000000005040002000000000000000000000000000000000000000000000000000000000e0000000000000000e10100000000000000000000000000000000000000000007000000000000000000000000000000000000000000000000000000000000000c000002000200000001000000000000000000000000000000000000000000000c000002000200000000000000000000000000000000717b484e0000000000000e000002000000000020000000000000000000000000000000000000000000000c000001000100000001410000000000000000000000000000000000000000000c000001000100000000000000000000000000000000000000000000000000000c000002000200000001040000000000000000000000000000000000000000000c0000020002000000000000000000000000000000000000000000000000000007000000000000000003620600000000000000000000000000000000000000000c000002000200000001240000000000000000000000000000000000000000000c000002000200000000000000000000000000000000000000000000000000000e000002000000000000000000000000000000000000000000000000000000000c000004000400000001000000000000000000000000000000000000000000000c000004000400000000000000000000000000000000000000000000000000000c000002000200000001200000000000000000000000000000000000000000000c000002000200000000000000000000000000000000000000000000000000000a000000000000000001f805f805000000000000000000000000000000000000020800000004000000000000000000000000000000000000000000000000000004100000000000000000000000000000000000000000000000000000000000000a00000000000000000af8052306000000000000000000000000000000000000180000040008000000000500000000000000000000000000000000000000000008080002000800000000000000000000000000000000000000000000000000000e080000001000000021000000000000000000000000000000000000000000000e0800100000000000000100000000000000000000000000000000000000000002000004000800000000010000000000000000000000000000000000000000000c000010001000000001010000000000000000000000000000000000000000000c0000100010000000000000000000000000000000000000000000000000000004080004000000000000000000000000000000000000000000000000000000000a000000000000000002f50501060000000000000000000000000000000000000c000010001000000001000000000000000000000000000000000000000000000c000010001000000000000000000000000000000000000000000000000000000a000000000000000001f505f5050000000000000000000000000000000000000c000002000200000001000000000000000000000000000000000000000000000c000002000200000000000000000000000000000000717b484e0000000000000e000002000000000020000000000000000000000000000000000000000000000c000001000100000001220000000000000000000000000000000000000000000c000001000100000000000000000000000000000000000000000000000000000c000002000200000001040000000000000000000000000000000000000000000c0000020002000000000000000000000000000000000000000000000000000007000000000000000003620600000000000000000000000000000000000000000c000002000200000001240000000000000000000000000000000000000000000c000002000200000000000000000000000000000000000000000000000000000e000002000000000000000000000000000000000000000000000000000000000c000004000400000001000000000000000000000000000000000000000000000c000004000400000000000000000000000000000000000000000000000000000c000002000200000001200000000000000000000000000000000000000000000c000002000200000000000000000000000000000000000000000000000000000a00000000000000000117061706000000000000000000000000000000000000020800000004000000000000000000000000000000000000000000000000000004100000000000000000000000000000000000000000000000000000000000000a00000000000000000a17062e06000000000000000000000000000000000000180000040008000000000500000000000000000000000000000000000000000008080002000800000000000000000000000000000000000000000000000000000e080000001000000021000000000000000000000000000000000000000000000e0800100000000000000100000000000000000000000000000000000000000002000004000800000000010000000000000000000000000000000000000000000c000010001000000001010000000000000000000000000000000000000000000c0000100010000000000000000000000000000000000000000000000000000004080004000000000000000000000000000000000000000000000000000000000a000000000000000002140620060000000000000000000000000000000000000c000010001000000001000000000000000000000000000000000000000000000c000010001000000000000000000000000000000000000000000000000000000a000000000000000001140614060000000000000000000000000000000000000c000002000200000001ffffffffffffffffffffffffffffffff0000000000000c000002000200000000ffffffffffffffffffffffff000000000000000000000e000000000400000001020000000000000000000000000000000000000000001a040002000200000002000000000000000000000000000000000000000000000c000004000400000001000000000000000000000000000000000000000000000c000004000400000000000000000000000000000000ffffffff0000000000000e000000000800000021010000000000000000000000000000000000000000001a080004000400000002000000000000000000000000000000000000000000001a040002000200000004000000000000000000000000000000000000000000000e000002000000000000020000000000000000000000000000000000000000000a000000000000000001380638060000000000000000000000000000000000000c000002000200000001ffffffffffffffffffffffffffffffff0000000000000c000002000200000000ffffffffffffffffffffffff000000000000000000000e000000000400000001020000000000000000000000000000000000000000001a040002000200000002000000000000000000000000000000000000000000000c000004000400000001000000000000000000000000000000000000000000000c000004000400000000000000000000000000000000ffffffff0000000000000e000000000800000021010000000000000000000000000000000000000000001a080004000400000002000000000000000000000000000000000000000000001a040002000200000004000000000000000000000000000000000000000000000e000002000000000000020000000000000000000000000000000000000000000e0000000000000000e10100000000000000000000000000000000000000000007000000000000000004000000000000000000000000000000000000000000000c000002000200000001e0ffffffffffffffffffffffffffffff0000000000000c000002000200000000ffffffffffffffffffffffffffffffff0000000000001a010002000200000002000000000000000000000000000000000000000000000c000004000400000001200000000000000000000000000000000000000000000c0000040004000000000000000000000000000000000000000000000000000008020004000400000000000000000000000000000000000000000000000000001a0000010002000000021f00000000000000000000000000000000000000000018000002000800000000030000000000000000000000000000000000000000000e0400000002000000210000000000000000000000000000000000000000000004080000000000000000000000000000000000000000000000000000000000000a0000000000000000044c0645060000000000000000000000000000000000000c000010001000000001000100000000000000000000000000000000000000000c0000100010000000000000000000000000000000000000000000000000000004100008001000000000000000000000000000000000000000000000000000000e04000000040000002101000000000000000000000000000000000000000000181000040004000000020000000000000000000000000000000000000000000018080002000200000000000000000000000000000000000000000000000000001a04000200020000000400000000000000000000000000000000000000000000020200000001000000000000000000000000000000000000000000000000000007000000000000000000000000000000000000000000000000000000000000000c000002000200000001e0ffffffffffffffffffffffffffffff0000000000000c000002000200000000ffffffffffffffffffffffffffffffff0000000000001a010002000200000002000000000000000000000000000000000000000000000c000004000400000001200000000000000000000000000000000000000000000c0000040004000000000000000000000000000000000000000000000000000008020004000400000000000000000000000000000000000000000000000000001a0000010002000000021f00000000000000000000000000000000000000000018000002000800000000030000000000000000000000000000000000000000000e0400000002000000010000000000000000000000000000000000000000000004080000000000000000000000000000000000000000000000000000000000000a000000000000000004600659060000000000000000000000000000000000000c000010001000000001000100000000000000000000000000000000000000000c0000100010000000000000000000000000000000000000000000000000000004100008001000000000000000000000000000000000000000000000000000000e04000000040000000101000000000000000000000000000000000000000000181000040004000000020000000000000000000000000000000000000000000018080002000200000000000000000000000000000000000000000000000000001a04000200020000000400000000000000000000000000000000000000000000020200000001000000000000000000000000000000000000000000000000000007000000000000000000000000000000000000000000000000000000000000000c000004000400000001e0ffffffffffffffffffffffffffffff0000000000000c000004000400000000ffffffffffffffffffffffffffffffff0000000000001a020004000400000002000000000000000000000000000000000000000000000c000008000800000001200000000000000000000000000000000000000000000c0000080008000000000000000000000000000000000000000000000000000008040008000400000000000000000000000000000000000000000000000000001a0000020002000000021f00000000000000000000000000000000000000000018000002000200000000030000000000000000000000000000000000000000000c000008000800000001000100000000000000000000000000000000000000000c0000080008000000000000000000000000000000000000000000000000000004080002001000000000000000000000000000000000000000000000000000000c000020002000000001ffffffffffffffffffffffffffffffff0000000000000c000020002000000000ffffffffffffffffffffffffffffffff000000000000020100000008000000000000000000000000000000000000000000000000000004020000000000000000000000000000000000000000000000000000000000000a0000000000000000047706720600000000000000000000000000000000000018100020000800000000000000000000000000000000000000000000000000000e040000004000000021000000000000000000000000000000000000000000001a4000080008000000020000000000000000000000000000000000000000000018020001004000000002000000000000000000000000000000000000000000001a400008000800000004000000000000000000000000000000000000000000000e0400000040000000210100000000000000000000000000000000000000000004020000000000000000000000000000000000000000000000000000000000000a0000000000000000047e067a06000000000000000000000000000000000000181000010010000000000000000000000000000000000000000000000000000018020020000200000002000000000000000000000000000000000000000000001a400002000200000002000000000000000000000000000000000000000000001a100002004000000004000000000000000000000000000000000000000000000e040040000000000020010000000000000000000000000000000000000000000e04000800000000002000000000000000000000000000000000000000000000070000000000000000000000000000000000000000000000000000000000000007010000000000000001000000000000000000000000000000000000000000000a000000000000000002830686060000000000000000000000000000000000000c000001000100000001000000000000000000000000000000000000000000000c0000010001000000000000000000000000000000000000000000000000000007000000000000000000000000000000000000000000000000000000000000000c000001000100000001010000000000000000000000000000000000000000000c00000100010000000000000000000000000000000000000000000000000000070000000000000000000000000000000000000000000000000000000000000007010000000000000005000000000000000000000000000000000000000000000a0000000000000000028b068e060000000000000000000000000000000000000c000001000100000001000000000000000000000000000000000000000000000c0000010001000000000000000000000000000000000000000000000000000007000000000000000000000000000000000000000000000000000000000000000c000001000100000001010000000000000000000000000000000000000000000c000001000100000000000000000000000000000000000000000000000000000700000000000000000000000000000000000000000000000000000000000000"
        }
      },
      "factoryDependencies": {},
      "hash": "49641cf6035704879b5b9455774012492c8cd98a6ce4bc7f7d0f48e942cd1c41"
    }
  }
}